{
  "_format": "hh-sol-artifact-1",
  "contractName": "GeneScope",
  "sourceName": "contracts/GeneScope.sol",
  "abi": [
    {
      "anonymous": false,
      "inputs": [
        {
          "indexed": true,
          "internalType": "uint256",
          "name": "claimId",
          "type": "uint256"
        },
        {
          "indexed": true,
          "internalType": "address",
          "name": "owner",
          "type": "address"
        },
        {
          "indexed": false,
          "internalType": "string",
          "name": "ipfsHash",
          "type": "string"
        },
        {
          "indexed": false,
          "internalType": "enum GeneScope.AccessScope",
          "name": "scope",
          "type": "uint8"
        },
        {
          "indexed": false,
          "internalType": "uint256",
          "name": "validUntil",
          "type": "uint256"
        },
        {
          "indexed": false,
          "internalType": "string[]",
          "name": "tags",
          "type": "string[]"
        }
      ],
      "name": "ClaimCreated",
      "type": "event"
    },
    {
      "inputs": [],
      "name": "claimCount",
      "outputs": [
        {
          "internalType": "uint256",
          "name": "",
          "type": "uint256"
        }
      ],
      "stateMutability": "view",
      "type": "function"
    },
    {
      "inputs": [
        {
          "internalType": "uint256",
          "name": "",
          "type": "uint256"
        }
      ],
      "name": "claims",
      "outputs": [
        {
          "internalType": "address",
          "name": "owner",
          "type": "address"
        },
        {
          "internalType": "string",
          "name": "ipfsHash",
          "type": "string"
        },
        {
          "internalType": "enum GeneScope.AccessScope",
          "name": "scope",
          "type": "uint8"
        },
        {
          "internalType": "uint256",
          "name": "validUntil",
          "type": "uint256"
        }
      ],
      "stateMutability": "view",
      "type": "function"
    },
    {
      "inputs": [
        {
          "internalType": "string",
          "name": "_ipfsHash",
          "type": "string"
        },
        {
          "internalType": "enum GeneScope.AccessScope",
          "name": "_scope",
          "type": "uint8"
        },
        {
          "internalType": "uint256",
          "name": "_validUntil",
          "type": "uint256"
        },
        {
          "internalType": "string[]",
          "name": "_tags",
          "type": "string[]"
        }
      ],
      "name": "createClaim",
      "outputs": [],
      "stateMutability": "nonpayable",
      "type": "function"
    },
    {
      "inputs": [
        {
          "internalType": "uint256",
          "name": "_id",
          "type": "uint256"
        }
      ],
      "name": "deleteClaim",
      "outputs": [],
      "stateMutability": "nonpayable",
      "type": "function"
    },
    {
      "inputs": [
        {
          "internalType": "uint256",
          "name": "_id",
          "type": "uint256"
        }
      ],
      "name": "getClaim",
      "outputs": [
        {
          "components": [
            {
              "internalType": "address",
              "name": "owner",
              "type": "address"
            },
            {
              "internalType": "string",
              "name": "ipfsHash",
              "type": "string"
            },
            {
              "internalType": "enum GeneScope.AccessScope",
              "name": "scope",
              "type": "uint8"
            },
            {
              "internalType": "uint256",
              "name": "validUntil",
              "type": "uint256"
            },
            {
              "internalType": "string[]",
              "name": "tags",
              "type": "string[]"
            }
          ],
          "internalType": "struct GeneScope.DataClaim",
          "name": "",
          "type": "tuple"
        }
      ],
      "stateMutability": "view",
      "type": "function"
    }
  ],
  "bytecode": "0x6080604052348015600f57600080fd5b506113ef8061001f6000396000f3fe608060405234801561001057600080fd5b50600436106100575760003560e01c80635aef24471461005c57806382537c5d1461008c5780638da4d3c9146100a8578063a888c2cd146100c6578063d78bd7fe146100f9575b600080fd5b6100766004803603810190610071919061087d565b610115565b6040516100839190610b40565b60405180910390f35b6100a660048036038101906100a1919061087d565b610347565b005b6100b0610467565b6040516100bd9190610b71565b60405180910390f35b6100e060048036038101906100db919061087d565b61046d565b6040516100f09493929190610bf4565b60405180910390f35b610113600480360381019061010e9190610e80565b610552565b005b61011d6106e1565b6000808381526020019081526020016000206040518060a00160405290816000820160009054906101000a900473ffffffffffffffffffffffffffffffffffffffff1673ffffffffffffffffffffffffffffffffffffffff1673ffffffffffffffffffffffffffffffffffffffff1681526020016001820180546101a090610f4e565b80601f01602080910402602001604051908101604052809291908181526020018280546101cc90610f4e565b80156102195780601f106101ee57610100808354040283529160200191610219565b820191906000526020600020905b8154815290600101906020018083116101fc57829003601f168201915b505050505081526020016002820160009054906101000a900460ff1660038111156102475761024661097b565b5b60038111156102595761025861097b565b5b81526020016003820154815260200160048201805480602002602001604051908101604052809291908181526020016000905b828210156103385783829060005260206000200180546102ab90610f4e565b80601f01602080910402602001604051908101604052809291908181526020018280546102d790610f4e565b80156103245780601f106102f957610100808354040283529160200191610324565b820191906000526020600020905b81548152906001019060200180831161030757829003601f168201915b50505050508152602001906001019061028c565b50505050815250509050919050565b803373ffffffffffffffffffffffffffffffffffffffff1660008083815260200190815260200160002060000160009054906101000a900473ffffffffffffffffffffffffffffffffffffffff1673ffffffffffffffffffffffffffffffffffffffff16146103eb576040517f08c379a00000000000000000000000000000000000000000000000000000000081526004016103e290610fcb565b60405180910390fd5b600080838152602001908152602001600020600080820160006101000a81549073ffffffffffffffffffffffffffffffffffffffff02191690556001820160006104359190610738565b6002820160006101000a81549060ff021916905560038201600090556004820160006104619190610778565b50505050565b60015481565b60006020528060005260406000206000915090508060000160009054906101000a900473ffffffffffffffffffffffffffffffffffffffff16908060010180546104b690610f4e565b80601f01602080910402602001604051908101604052809291908181526020018280546104e290610f4e565b801561052f5780601f106105045761010080835404028352916020019161052f565b820191906000526020600020905b81548152906001019060200180831161051257829003601f168201915b5050505050908060020160009054906101000a900460ff16908060030154905084565b6040518060a001604052803373ffffffffffffffffffffffffffffffffffffffff1681526020018581526020018460038111156105925761059161097b565b5b815260200183815260200182815250600080600154815260200190815260200160002060008201518160000160006101000a81548173ffffffffffffffffffffffffffffffffffffffff021916908373ffffffffffffffffffffffffffffffffffffffff16021790555060208201518160010190816106119190611197565b5060408201518160020160006101000a81548160ff0219169083600381111561063d5761063c61097b565b5b0217905550606082015181600301556080820151816004019080519060200190610668929190610799565b509050503373ffffffffffffffffffffffffffffffffffffffff166001547f30db467861cc36a05613dbd91364e1bed9dbe56ad47269725ca889630bf3c3ff868686866040516106bb94939291906112ef565b60405180910390a3600160008154809291906106d690611371565b919050555050505050565b6040518060a00160405280600073ffffffffffffffffffffffffffffffffffffffff16815260200160608152602001600060038111156107245761072361097b565b5b815260200160008152602001606081525090565b50805461074490610f4e565b6000825580601f106107565750610775565b601f01602090049060005260206000209081019061077491906107f2565b5b50565b5080546000825590600052602060002090810190610796919061080f565b50565b8280548282559060005260206000209081019282156107e1579160200282015b828111156107e05782518290816107d09190611197565b50916020019190600101906107b9565b5b5090506107ee919061080f565b5090565b5b8082111561080b5760008160009055506001016107f3565b5090565b5b8082111561082f57600081816108269190610738565b50600101610810565b5090565b6000604051905090565b600080fd5b600080fd5b6000819050919050565b61085a81610847565b811461086557600080fd5b50565b60008135905061087781610851565b92915050565b6000602082840312156108935761089261083d565b5b60006108a184828501610868565b91505092915050565b600073ffffffffffffffffffffffffffffffffffffffff82169050919050565b60006108d5826108aa565b9050919050565b6108e5816108ca565b82525050565b600081519050919050565b600082825260208201905092915050565b60005b8381101561092557808201518184015260208101905061090a565b60008484015250505050565b6000601f19601f8301169050919050565b600061094d826108eb565b61095781856108f6565b9350610967818560208601610907565b61097081610931565b840191505092915050565b7f4e487b7100000000000000000000000000000000000000000000000000000000600052602160045260246000fd5b600481106109bb576109ba61097b565b5b50565b60008190506109cc826109aa565b919050565b60006109dc826109be565b9050919050565b6109ec816109d1565b82525050565b6109fb81610847565b82525050565b600081519050919050565b600082825260208201905092915050565b6000819050602082019050919050565b6000610a398383610942565b905092915050565b6000602082019050919050565b6000610a5982610a01565b610a638185610a0c565b935083602082028501610a7585610a1d565b8060005b85811015610ab15784840389528151610a928582610a2d565b9450610a9d83610a41565b925060208a01995050600181019050610a79565b50829750879550505050505092915050565b600060a083016000830151610adb60008601826108dc565b5060208301518482036020860152610af38282610942565b9150506040830151610b0860408601826109e3565b506060830151610b1b60608601826109f2565b5060808301518482036080860152610b338282610a4e565b9150508091505092915050565b60006020820190508181036000830152610b5a8184610ac3565b905092915050565b610b6b81610847565b82525050565b6000602082019050610b866000830184610b62565b92915050565b610b95816108ca565b82525050565b600082825260208201905092915050565b6000610bb7826108eb565b610bc18185610b9b565b9350610bd1818560208601610907565b610bda81610931565b840191505092915050565b610bee816109d1565b82525050565b6000608082019050610c096000830187610b8c565b8181036020830152610c1b8186610bac565b9050610c2a6040830185610be5565b610c376060830184610b62565b95945050505050565b600080fd5b600080fd5b7f4e487b7100000000000000000000000000000000000000000000000000000000600052604160045260246000fd5b610c8282610931565b810181811067ffffffffffffffff82111715610ca157610ca0610c4a565b5b80604052505050565b6000610cb4610833565b9050610cc08282610c79565b919050565b600067ffffffffffffffff821115610ce057610cdf610c4a565b5b610ce982610931565b9050602081019050919050565b82818337600083830152505050565b6000610d18610d1384610cc5565b610caa565b905082815260208101848484011115610d3457610d33610c45565b5b610d3f848285610cf6565b509392505050565b600082601f830112610d5c57610d5b610c40565b5b8135610d6c848260208601610d05565b91505092915050565b60048110610d8257600080fd5b50565b600081359050610d9481610d75565b92915050565b600067ffffffffffffffff821115610db557610db4610c4a565b5b602082029050602081019050919050565b600080fd5b6000610dde610dd984610d9a565b610caa565b90508083825260208201905060208402830185811115610e0157610e00610dc6565b5b835b81811015610e4857803567ffffffffffffffff811115610e2657610e25610c40565b5b808601610e338982610d47565b85526020850194505050602081019050610e03565b5050509392505050565b600082601f830112610e6757610e66610c40565b5b8135610e77848260208601610dcb565b91505092915050565b60008060008060808587031215610e9a57610e9961083d565b5b600085013567ffffffffffffffff811115610eb857610eb7610842565b5b610ec487828801610d47565b9450506020610ed587828801610d85565b9350506040610ee687828801610868565b925050606085013567ffffffffffffffff811115610f0757610f06610842565b5b610f1387828801610e52565b91505092959194509250565b7f4e487b7100000000000000000000000000000000000000000000000000000000600052602260045260246000fd5b60006002820490506001821680610f6657607f821691505b602082108103610f7957610f78610f1f565b5b50919050565b7f4e6f7420636c61696d206f776e65720000000000000000000000000000000000600082015250565b6000610fb5600f83610b9b565b9150610fc082610f7f565b602082019050919050565b60006020820190508181036000830152610fe481610fa8565b9050919050565b60008190508160005260206000209050919050565b60006020601f8301049050919050565b600082821b905092915050565b60006008830261104d7fffffffffffffffffffffffffffffffffffffffffffffffffffffffffffffffff82611010565b6110578683611010565b95508019841693508086168417925050509392505050565b6000819050919050565b600061109461108f61108a84610847565b61106f565b610847565b9050919050565b6000819050919050565b6110ae83611079565b6110c26110ba8261109b565b84845461101d565b825550505050565b600090565b6110d76110ca565b6110e28184846110a5565b505050565b5b81811015611106576110fb6000826110cf565b6001810190506110e8565b5050565b601f82111561114b5761111c81610feb565b61112584611000565b81016020851015611134578190505b61114861114085611000565b8301826110e7565b50505b505050565b600082821c905092915050565b600061116e60001984600802611150565b1980831691505092915050565b6000611187838361115d565b9150826002028217905092915050565b6111a0826108eb565b67ffffffffffffffff8111156111b9576111b8610c4a565b5b6111c38254610f4e565b6111ce82828561110a565b600060209050601f83116001811461120157600084156111ef578287015190505b6111f9858261117b565b865550611261565b601f19841661120f86610feb565b60005b8281101561123757848901518255600182019150602085019450602081019050611212565b868310156112545784890151611250601f89168261115d565b8355505b6001600288020188555050505b505050505050565b600082825260208201905092915050565b600061128582610a01565b61128f8185611269565b9350836020820285016112a185610a1d565b8060005b858110156112dd57848403895281516112be8582610a2d565b94506112c983610a41565b925060208a019950506001810190506112a5565b50829750879550505050505092915050565b600060808201905081810360008301526113098187610bac565b90506113186020830186610be5565b6113256040830185610b62565b8181036060830152611337818461127a565b905095945050505050565b7f4e487b7100000000000000000000000000000000000000000000000000000000600052601160045260246000fd5b600061137c82610847565b91507fffffffffffffffffffffffffffffffffffffffffffffffffffffffffffffffff82036113ae576113ad611342565b5b60018201905091905056fea264697066735822122001cfa57f569aa1af1b8883c8b7192aa93d6cc51ba870fae413387c668653d5d764736f6c634300081c0033",
  "linkReferences": {},
  "deployedLinkReferences": {}
}