{
  "_format": "hh-sol-artifact-1",
  "contractName": "GeneScope",
  "sourceName": "contracts/GeneScope.sol",
  "abi": [
    {
      "anonymous": false,
      "inputs": [
        {
          "indexed": true,
          "internalType": "uint256",
          "name": "claimId",
          "type": "uint256"
        },
        {
          "indexed": true,
          "internalType": "address",
          "name": "owner",
          "type": "address"
        },
        {
          "indexed": false,
          "internalType": "string",
          "name": "ipfsHash",
          "type": "string"
        },
        {
          "indexed": false,
          "internalType": "enum GeneScope.AccessScope",
          "name": "scope",
          "type": "uint8"
        },
        {
          "indexed": false,
          "internalType": "uint256",
          "name": "validUntil",
          "type": "uint256"
        },
        {
          "indexed": false,
          "internalType": "string[]",
          "name": "tags",
          "type": "string[]"
        }
      ],
      "name": "ClaimCreated",
      "type": "event"
    },
    {
      "inputs": [],
      "name": "claimCount",
      "outputs": [
        {
          "internalType": "uint256",
          "name": "",
          "type": "uint256"
        }
      ],
      "stateMutability": "view",
      "type": "function"
    },
    {
      "inputs": [
        {
          "internalType": "uint256",
          "name": "",
          "type": "uint256"
        }
      ],
      "name": "claims",
      "outputs": [
        {
          "internalType": "address",
          "name": "owner",
          "type": "address"
        },
        {
          "internalType": "string",
          "name": "ipfsHash",
          "type": "string"
        },
        {
          "internalType": "enum GeneScope.AccessScope",
          "name": "scope",
          "type": "uint8"
        },
        {
          "internalType": "uint256",
          "name": "validUntil",
          "type": "uint256"
        }
      ],
      "stateMutability": "view",
      "type": "function"
    },
    {
      "inputs": [
        {
          "internalType": "string",
          "name": "_ipfsHash",
          "type": "string"
        },
        {
          "internalType": "enum GeneScope.AccessScope",
          "name": "_scope",
          "type": "uint8"
        },
        {
          "internalType": "uint256",
          "name": "_validUntil",
          "type": "uint256"
        },
        {
          "internalType": "string[]",
          "name": "_tags",
          "type": "string[]"
        }
      ],
      "name": "createClaim",
      "outputs": [],
      "stateMutability": "nonpayable",
      "type": "function"
    },
    {
      "inputs": [
        {
          "internalType": "uint256",
          "name": "_id",
          "type": "uint256"
        }
      ],
      "name": "getClaim",
      "outputs": [
        {
          "components": [
            {
              "internalType": "address",
              "name": "owner",
              "type": "address"
            },
            {
              "internalType": "string",
              "name": "ipfsHash",
              "type": "string"
            },
            {
              "internalType": "enum GeneScope.AccessScope",
              "name": "scope",
              "type": "uint8"
            },
            {
              "internalType": "uint256",
              "name": "validUntil",
              "type": "uint256"
            },
            {
              "internalType": "string[]",
              "name": "tags",
              "type": "string[]"
            }
          ],
          "internalType": "struct GeneScope.DataClaim",
          "name": "",
          "type": "tuple"
        }
      ],
      "stateMutability": "view",
      "type": "function"
    }
  ],
  "bytecode": "0x608060405234801561001057600080fd5b50610b01806100206000396000f3fe608060405234801561001057600080fd5b506004361061004c5760003560e01c80635aef2447146100515780638da4d3c91461007a578063a888c2cd14610091578063d78bd7fe146100b4575b600080fd5b61006461005f366004610589565b6100c9565b6040516100719190610620565b60405180910390f35b61008360015481565b604051908152602001610071565b6100a461009f366004610589565b6102d3565b60405161007194939291906106d6565b6100c76100c23660046107cf565b610392565b005b6100fb6040805160a0810182526000808252606060208301529091820190815260200160008152602001606081525090565b60008281526020818152604091829020825160a0810190935280546001600160a01b031683526001810180549192840191610135906108d4565b80601f0160208091040260200160405190810160405280929190818152602001828054610161906108d4565b80156101ae5780601f10610183576101008083540402835291602001916101ae565b820191906000526020600020905b81548152906001019060200180831161019157829003601f168201915b5050509183525050600282015460209091019060ff1660038111156101d5576101d56105e8565b60038111156101e6576101e66105e8565b81526020016003820154815260200160048201805480602002602001604051908101604052809291908181526020016000905b828210156102c5578382906000526020600020018054610238906108d4565b80601f0160208091040260200160405190810160405280929190818152602001828054610264906108d4565b80156102b15780601f10610286576101008083540402835291602001916102b1565b820191906000526020600020905b81548152906001019060200180831161029457829003601f168201915b505050505081526020019060010190610219565b505050915250909392505050565b600060208190529081526040902080546001820180546001600160a01b0390921692916102ff906108d4565b80601f016020809104026020016040519081016040528092919081815260200182805461032b906108d4565b80156103785780601f1061034d57610100808354040283529160200191610378565b820191906000526020600020905b81548152906001019060200180831161035b57829003601f168201915b505050506002830154600390930154919260ff1691905084565b6040518060a00160405280336001600160a01b031681526020018581526020018460038111156103c4576103c46105e8565b81526020808201859052604091820184905260018054600090815280835292909220835181546001600160a01b0319166001600160a01b03909116178155908301519091820190610415908261095d565b50604082015160028201805460ff19166001836003811115610439576104396105e8565b021790555060608201516003820155608082015180516104639160048401916020909101906104c4565b50506001546040513392507f30db467861cc36a05613dbd91364e1bed9dbe56ad47269725ca889630bf3c3ff906104a1908890889088908890610a1d565b60405180910390a3600180549060006104b983610aa4565b919050555050505050565b82805482825590600052602060002090810192821561050a579160200282015b8281111561050a57825182906104fa908261095d565b50916020019190600101906104e4565b5061051692915061051a565b5090565b8082111561051657600061052e8282610537565b5060010161051a565b508054610543906108d4565b6000825580601f10610553575050565b601f0160209004906000526020600020908101906105719190610574565b50565b5b808211156105165760008155600101610575565b60006020828403121561059b57600080fd5b5035919050565b6000815180845260005b818110156105c8576020818501810151868301820152016105ac565b506000602082860101526020601f19601f83011685010191505092915050565b634e487b7160e01b600052602160045260246000fd5b6004811061061c57634e487b7160e01b600052602160045260246000fd5b9052565b602080825282516001600160a01b0316828201528281015160a060408401526000919061065060c08501826105a2565b9050604085015161066460608601826105fe565b50606085015160808501526080850151601f19808684030160a08701528282518085528585019150858160051b860101868501945060005b828110156106c857848783030184526106b68287516105a2565b9588019593880193915060010161069c565b509998505050505050505050565b6001600160a01b03851681526080602082018190526000906106fa908301866105a2565b905061070960408301856105fe565b82606083015295945050505050565b634e487b7160e01b600052604160045260246000fd5b604051601f8201601f1916810167ffffffffffffffff8111828210171561075757610757610718565b604052919050565b600082601f83011261077057600080fd5b813567ffffffffffffffff81111561078a5761078a610718565b61079d601f8201601f191660200161072e565b8181528460208386010111156107b257600080fd5b816020850160208301376000918101602001919091529392505050565b600080600080608085870312156107e557600080fd5b843567ffffffffffffffff808211156107fd57600080fd5b6108098883890161075f565b955060209150818701356004811061082057600080fd5b94506040870135935060608701358181111561083b57600080fd5b8701601f8101891361084c57600080fd5b80358281111561085e5761085e610718565b8060051b61086d85820161072e565b918252828101850191858101908c84111561088757600080fd5b86850192505b838310156108c3578235868111156108a55760008081fd5b6108b38e898389010161075f565b835250918601919086019061088d565b999c989b5096995050505050505050565b600181811c908216806108e857607f821691505b60208210810361090857634e487b7160e01b600052602260045260246000fd5b50919050565b601f82111561095857600081815260208120601f850160051c810160208610156109355750805b601f850160051c820191505b8181101561095457828155600101610941565b5050505b505050565b815167ffffffffffffffff81111561097757610977610718565b61098b8161098584546108d4565b8461090e565b602080601f8311600181146109c057600084156109a85750858301515b600019600386901b1c1916600185901b178555610954565b600085815260208120601f198616915b828110156109ef578886015182559484019460019091019084016109d0565b5085821015610a0d5787850151600019600388901b60f8161c191681555b5050505050600190811b01905550565b608081526000610a3060808301876105a2565b6020610a3e818501886105fe565b85604085015283820360608501528185518084528284019150828160051b85010183880160005b83811015610a9357601f19878403018552610a818383516105a2565b94860194925090850190600101610a65565b50909b9a5050505050505050505050565b600060018201610ac457634e487b7160e01b600052601160045260246000fd5b506001019056fea2646970667358221220a3ec0d1924563a1a18c3a9c7591983f8e40c66d00d97e6f112a6e06d99a1fbe064736f6c63430008140033",
  "linkReferences": {},
  "deployedLinkReferences": {}
}